:1000000045C000004BC0000049C0000047C00000D0
:1000100045C0000043C0000041C000003FC00000D8
:100020003DC000003BC0000039C0000037C00000E8
:1000300035C0000033C0000031C000002FC00000F8
:100040002DC000002BC0000029C0000027C0000008
:1000500025C0000023C0000021C000001FC0000018
:100060001DC000001BC0000019C0000017C0000028
:1000700015C0000013C0000011C000000FC0000038
:100080000DC000000BC0000009C0000011241FBEFD
:10009000CFEFD0E1DEBFCDBF43D07CC0B1CFFC01FC
:1000A0007183608353834283248381E08583FB01D2
:1000B000308181E090E002C0880F991F2A95E2F715
:1000C0008095832380830895FC01A281B3818C9164
:1000D00021E030E0048002C0220F331F0A94E2F7CF
:1000E000282359F48581813041F4A3EDB0E31197C1
:1000F000F1F700C0000015820895222369F0858180
:1001000081110CC083ED90E30197F1F700C000006E
:1001100081E0858382E0089580E0089580E008957D
:10012000CF93DF93CDB7DEB762970FB6F894DEBFFB
:100130000FBECDBF8FEF81BB20E043E350E064E30F
:1001400070E0CE010196ABDF21E043E350E064E3D1
:1001500070E0CE010796A3DF22E043E350E064E3C2
:1001600070E0CE010D969BDFCE010196ADDF8230AF
:1001700011F48FEF82BBCE010796A6DF823009F41F
:1001800012BACE010D96A0DF823071F782B380954E
:0801900082BBEACFF894FFCF17
:00000001FF
