:1000000045C0000060C000005EC000005CC0000091
:100010005AC0000058C0000056C0000054C0000084
:1000200052C0000050C000004EC000004CC0000094
:100030004AC0000048C0000046C0000044C00000A4
:1000400042C0000040C000003EC000003CC00000B4
:100050003AC0000038C0000036C0000034C00000C4
:1000600032C0000030C000002EC000002CC00000D4
:100070002AC0000028C0000026C0000024C00000E4
:1000800022C0000020C000001EC0000011241FBEBE
:10009000CFEFD0E1DEBFCDBF11E0A0E0B1E0E8E9F5
:1000A000F9E000E00BBF02C007900D92AA3AB10739
:1000B000D9F721E0AAEAB1E001C01D92AB3CB2073A
:1000C000E1F723D267C49CCFFC0171836083538323
:1000D0004283248381E08583FB01308181E090E0CD
:1000E00002C0880F991F2A95E2F7809583238083A9
:1000F0000895FC01A281B3818C9121E030E004805D
:1001000002C0220F331F0A94E2F7282359F4858195
:10011000813041F4A3EDB0E31197F1F700C0000086
:1001200015820895222369F0858181110CC083ED29
:1001300090E30197F1F700C0000081E0858382E041
:10014000089580E0089580E00895FC01A281B381C4
:100150008C9121E030E0048002C0220F331F0A940A
:10016000E2F7282359F48581813041F4A3EDB0E30F
:100170001197F1F700C00000158208952223A9F01D
:100180008581811114C083ED90E30197F1F700C0E0
:10019000000081E085838091AA019091AB010196D6
:1001A0009093AB018093AA01089580E0089580E0C8
:1001B000089581D18FEF8ABB20E043E350E064E3F0
:1001C00070E08EEB91E080DF21E043E350E064E3F8
:1001D00070E084EC91E078DF22E043E350E064E3F8
:1001E00070E08CEA91E070DF23E043E350E064E3E9
:1001F00070E088EB91E068DF24E043E350E064E3E3
:1002000070E082EB91E060DFE1E6F0E08081806306
:10021000808383B7866083BF83B7886483BF83B7D7
:10022000806283BF87B3806187BB089540E051E05F
:1002300060E080E037D141E151E060E081E032C12F
:1002400008958EEB91E055DF823081F41BBAE2E62F
:10025000F0E080818063808342E251E060E080E0F2
:1002600021D143E351E060E081E01CD184EC91E0D6
:1002700040DF8230E9F481E0E2D01BBA8BB38160C9
:100280008BBB87B3806187BB80E481BFE2E6F0E08F
:1002900080818F7D808380818061808344E451E010
:1002A00060E080E0FFD045E551E060E081E0FAD019
:1002B0008CEA91E01EDF8230F9F481E0C0D01BBAF5
:1002C0008BB383608BBB87B3806187BB8FEB81BFB0
:1002D000E2E6F0E080818F7D808380818061808391
:1002E00046E651E060E080E0DDD047E751E060E0C5
:1002F00081E0D8D01092730088EB91E0FADE823072
:10030000E9F481E09CD01BBA8BB387608BBB87B3C9
:10031000806187BB8FEF81BFE2E6F0E080818F7D57
:10032000808380818061808348E851E060E080E0E4
:10033000B9D049E951E060E081E0B4C008958FB5DB
:100340008F738FBD08959FB590689FBD853B08F062
:1003500084EB682F70E080E090E02DD220E030E068
:1003600044E353E492D120E030E04AEF53E4AFD2CB
:1003700020E030E04AEF52E424D1EFD17BBD6ABDEA
:10038000089581B3836081BB88E4809370000895F1
:1003900084EA80937400809174008823E4F70895C0
:1003A00084E98093740008958093730084E88093B7
:1003B0007400809174008823E4F70895CF93DF934D
:1003C000D82FC62FE5DF8D2FEFDF8C2FEDDFE8DF95
:1003D000DF91CF9108956091CA016B7F6093CA014C
:1003E0008EE4ECDF6091CA0164606093CA018EE420
:1003F000E5DF6091CA016B7F6093CA018EE4DEDFA6
:100400008FEF98E10197F1F700C000000895CF93B6
:10041000C82F8091CA018F709C2F907F892B809369
:10042000CA01D9DF20E1C29FC00111249091CA0105
:100430009F70892B8093CA01CEDFCF910895909150
:10044000CA019C7F9093CA01E2CF08959091CA019E
:1004500091609D7F9093CA01DACF08956091CA019F
:1004600068606093CA018EE4A9CF08956F708170AF
:1004700090E4899F600D1124862F8058E0CF089565
:100480000F931F93CF938C01C0E002C0DFDFCF5FDB
:10049000F801EC0FF11D80818111F8CFCF911F91F0
:1004A0000F910895CF93DF93EA01E0DFCE01E8DFFB
:1004B000DF91CF91089565DF2FEF89EF90E0215014
:1004C00080409040E1F700C0000083E0B8DF8FE398
:1004D0009CE90197F1F700C0000083E0B0DF8FE9ED
:1004E0009FE00197F1F700C0000083E0A8DF82E001
:1004F000A6DF88E2A4DF88E0A2DF81E0A0DF86E05B
:100500009EDF8CE09CDFAACF089553DE8FDE8FB58F
:1005100082608FBD8EB588618EBD8FB580688FBDBE
:100520008EB583608EBD10927A0087E893E197BD07
:1005300086BD87DE82EB91E008DE8091AA01909172
:10054000AB010197B1F580E287BB2CC07ADE8C2F1E
:10055000FADE8FE39CE90197F1F700C000002196D5
:1005600002C0C0E0D0E0C43BD10584F3C0E0D0E0DD
:100570000BC067DE84EB8C1BE6DE8FE39CE9019702
:10058000F1F700C000002196C43BD10594F380919F
:10059000AA019091AB01019729F01092AB01109242
:1005A000AA01C7CF8091AA019091AB010197C9F22E
:1005B000C0CF47DEC4DE1092AB011092AA01B9CFC2
:1005C0005058BB27AA270ED048C139D130F03ED1B0
:1005D00020F031F49F3F11F41EF42EC10EF4E0958B
:1005E000E7FB24C1E92F4AD180F3BA1762077307EA
:1005F0008407950718F071F49EF562C10EF4E0953A
:100600000B2EBA2FA02D0B01B90190010C01CA01CC
:10061000A0011124FF27591B99F0593F50F4503E77
:1006200068F11A16F040A22F232F342F4427585F69
:10063000F3CF469537952795A795F0405395C9F781
:100640007EF41F16BA0B620B730B840BBAF0915039
:10065000A1F0FF0FBB1F661F771F881FC2F70EC0D8
:10066000BA0F621F731F841F48F4879577956795AB
:10067000B795F7959E3F08F0B3CF9395880F08F094
:100680009927EE0F9795879508950CD0E6C0DED098
:1006900040F0D5D030F021F45F3F19F0C7C05111C0
:1006A00010C1CAC0EBD098F39923C9F35523B1F315
:1006B000951B550BBB27AA2762177307840738F0D1
:1006C0009F5F5F4F220F331F441FAA1FA9F333D030
:1006D0000E2E3AF0E0E830D091505040E695001CE4
:1006E000CAF729D0FE2F27D0660F771F881FBB1FA0
:1006F000261737074807AB07B0E809F0BB0B802D7A
:10070000BF01FF2793585F4F2AF09E3F510568F0C5
:100710008DC0D7C05F3FECF3983EDCF386957795AC
:100720006795B795F7959F5FC9F7880F911D9695C7
:10073000879597F90895E1E0660F771F881FBB1F23
:10074000621773078407BA0720F0621B730B840BD0
:10075000BA0BEE1F88F7E095089598D088F09F5760
:1007600090F0B92F9927B751A0F0D1F0660F771FFD
:10077000881F991F1AF0BA95C9F712C0B13081F0DD
:100780009FD0B1E008959CC0672F782F8827B85F6D
:1007900039F0B93FCCF3869577956795B395D9F73E
:1007A0003EF490958095709561957F4F8F4F9F4F48
:1007B0000895E89409C097FB3EF490958095709554
:1007C00061957F4F8F4F9F4F9923A9F0F92F96E99D
:1007D000BB279395F695879577956795B795F11112
:1007E000F8CFFAF4BB0F11F460FF1BC06F5F7F4FAF
:1007F0008F4F9F4F16C0882311F096E911C07723C1
:1008000021F09EE8872F762F05C0662371F096E8C9
:10081000862F70E060E02AF09A95660F771F881F98
:10082000DAF7880F9695879597F9089597F99F6756
:1008300080E870E060E008959FEF80EC0895002468
:100840000A941616170618060906089500240A9435
:1008500012161306140605060895092E0394000CBB
:1008600011F4882352F0BB0F40F4BF2B11F460FF4A
:1008700004C06F5F7F4F8F4F9F4F089557FD905873
:10088000440F551F59F05F3F71F04795880F97FB54
:10089000991F61F09F3F79F087950895121613060E
:1008A0001406551FF2CF4695F1DF08C0161617063D
:1008B0001806991FF1CF8695710561050894089572
:1008C000E894BB2766277727CB0197F908950BD0CB
:1008D000C4CFB5DF28F0BADF18F0952309F0A6CF12
:1008E000ABCF1124EECFCADFA0F3959FD1F3950FC4
:1008F00050E0551F629FF001729FBB27F00DB11DA4
:10090000639FAA27F00DB11DAA1F649F6627B00D33
:10091000A11D661F829F2227B00DA11D621F739F1C
:10092000B00DA11D621F839FA00D611D221F749F2A
:100930003327A00D611D231F849F600D211D822F71
:10094000762F6A2F11249F5750408AF0E1F08823B8
:100950004AF0EE0FFF1FBB1F661F771F881F9150C5
:100960005040A9F79E3F510570F060CFAACF5F3F7E
:10097000ECF3983EDCF3869577956795B795F795F8
:10098000E7959F5FC1F7FE2B880F911D9695879580
:0809900097F90895F894FFCFD8
:100998002048656C6C6F204D6F64657374792120F5
:1009A8000020202046616E2053746172742020203C
:1009B800200020202053746F70206D6F6465202004
:1009C8002020002020506F776572203A20202030A8
:1009D800252020002020203173742053746167651E
:1009E80020202020002020506F776572203A202098
:1009F800323525202000202020326E642053746177
:100A0800676520202020002020506F776572203AEB
:100A180020203530252020002020203372642053E8
:100A28007461676520202020002020506F77657250
:0A0A3800203A203130302520200044
:00000001FF
