S01100004C45445F73686966742E73726563C1
S113000045C000004BC0000049C0000047C00000CC
S113001045C0000043C0000041C000003FC00000D4
S11300203DC000003BC0000039C0000037C00000E4
S113003035C0000033C0000031C000002FC00000F4
S11300402DC000002BC0000029C0000027C0000004
S113005025C0000023C0000021C000001FC0000014
S11300601DC000001BC0000019C0000017C0000024
S113007015C0000013C0000011C000000FC0000034
S11300800DC000000BC0000009C0000011241FBEF9
S1130090CFEFD0E1DEBFCDBF21D051C0B1CF8FEFC4
S11300A081BB089582BB0895FC019081292F30E023
S11300B0220F331F991F9927991F892F822B808321
S11300C0F1CF0895FC01908180E8989F900111245C
S11300D09695892F822B8083E5CF0895CF93DF9364
S11300E01F92CDB7DEB7DBDF81E0898300E010E04B
S11300F00EC0CE010196D8DF2FEF83EC99E021509A
S113010080409040E1F700C000000F5F1F4F0730B0
S113011011057CF300E010E00EC0CE010196D2DFA1
S11301202FEF83EC99E0215080409040E1F700C02C
S113013000000F5F1F4F073011057CF3D7CFF894F1
S1050140FFCFEB
S9030000FC
