S00D00004558545F332E7372656394
S113000045C0000060C000005EC000005CC000008D
S11300105AC00000DBC00000F2C0000007C10000AD
S113002052C0000050C000004EC000004CC0000090
S11300304AC0000048C0000046C0000044C00000A0
S113004043C0000040C000003EC000003CC00000AF
S11300503AC0000038C0000036C0000034C00000C0
S113006032C0000030C000002EC000002CC00000D0
S11300702AC0000028C0000026C0000024C00000E0
S113008022C0000020C000001EC0000011241FBEBA
S1130090CFEFD0E1DEBFCDBF11E0A0E0B1E0EEE4F0
S11300A0F5E000E00BBF02C007900D92AA30B10743
S11300B0D9F721E0AAE0B1E001C01D92A631B20750
S11300C0E1F7A5D142C29CCF1F920F920FB60F92B7
S11300D011242F934F935F936F937F938F939F93E9
S11300E0AF93BF9380910F0190911001A0911101E2
S11300F0B09112010196A11DB11D80930F0190933F
S11301001001A0931101B093120180910E0180FFA0
S113011028C080911301909114010097D9F0409167
S11301200F015091100160911101709112014A3F29
S1130130510561057105E1F50197909314018093D0
S1130140130110920F0110921001109211011092DC
S113015012012EC08FE097E2909314018093130153
S113016027C080911301909114018F3027E29207E8
S1130170D8F440910F0150911001609111017091D8
S113018012014A3F51056105710591F4019690935E
S113019014018093130110920F0110921001109218
S11301A011011092120104C0109214011092130153
S11301B0BF91AF919F918F917F916F915F914F917B
S11301C02F910F900FBE0F901F9018951F920F92B2
S11301D00FB60F9211248F938091150180FF03C0F5
S11301E081E087BF01C017BE809115018F5F8093A6
S11301F015018F910F900FBE0F901F9018951F92AD
S11302000F920FB60F92112410921501109214013F
S11302101092130110920C0110920B0110920D0117
S113022012BA0F900FBE0F901F9018951F920F9245
S11302300FB60F9211248F9380910E018F5F8093DC
S11302400E0181E087BF8F910F900FBE0F901F901A
S11302501895CF93DF93CDB7DEB72A970FB6F894EE
S1130260DEBF0FBECDBFAC018AE0E0E0F1E0DE010D
S1130270119601900D928A95E1F780910A018130DF
S113028049F138F0823009F459C0833009F488C048
S1130290AFC0E2E6F0E080818E7F808380818E6053
S11302A080839A0136952795369527953695279517
S11302B0A5ECB0E23BD1929582958F7089279F700F
S11302C08927E1E0F0E0EC0FFD1FE80FF91F8081C2
S11302D08BBB8EC0E2E6F0E080818D7F80838081DD
S11302E08D6080839A013695279536952795ABE7DF
S11302F0B4E11CD1AC01569547959A01ADECBCEC28
S113030015D19695879596958795969587959C0191
S1130310220F331F880F991F880F991F880F991F69
S1130320820F931F9A01281B390BE1E0F0E0EC0FD8
S1130330FD1FE20FF31F80818BBB5AC0E2E6F0E0A1
S113034080818B7F808380818B6080839A01ADEC78
S1130350BCECECD0AC01569547955695479556950F
S113036047959A01E3D096958795969587959695A6
S113037087959C01220F331F880F991F880F991F9F
S1130380880F991F820F931F9A01281B390BE1E0F4
S1130390F0E0EC0FFD1FE20FF31F80818BBB28C040
S11303A0E2E6F0E08081877F8083808187608083BC
S11303B09A01ADECBCECBAD0969587959695879545
S11303C0969587959C01220F331F880F991F880FDC
S11303D0991F880F991F820F931F9A01281B390BAD
S11303E0E1E0F0E0EC0FFD1FE20FF31F80818BBB17
S11303F080910A018F5F837080930A012A960FB659
S1130400F894DEBF0FBECDBFDF91CF9108958FEF7B
S11304108ABB809361001BBA92B192B981BB12BAB4
S113042086E083BF83E882BF8AB78A628ABF89B7BE
S1130430806789BF81E087BF789480911301909190
S1130440140107DF8FE79EE30197F1F700C0000076
S113045080910E0180FF36C08091130190911401A8
S1130460892B59F78FE39CE90197F1F700C000004D
S113047020910B0130910C0121153105C1F081E06F
S113048090E002C0880F991F2A95E2F78095909119
S11304900D01892380930D0182BB80910B01909102
S11304A00C01019790930C0180930B01C6CF88E057
S11304B090E090930C0180930B018FEF80930D01DA
S11304C082BBBBCF80911301909114018F3097426E
S11304D009F0B3CF8FE39CE90197F1F700C0000066
S11304E020910B0130910C0128303105B8F481E0E2
S11304F090E002C0880F991F2A95E2F790910D01B0
S1130500892B80930D0182BB80910B0190910C018A
S1130510019690930C0180930B018FCF10920C01E4
S113052010920B0110920D0112BA87CFA29FB00155
S1130530B39FC001A39F700D811D1124911DB29F13
S1110540700D811D1124911D0895F894FFCFB4
S10D054E3F065B4F666D7D277F6753
S9030000FC
