S010000042757A7A65725F312E7372656302
S113000045C000004BC0000049C0000047C00000CC
S113001045C0000043C0000041C000003FC00000D4
S11300203DC000003BC0000039C0000037C00000E4
S113003035C0000033C0000031C000002FC00000F4
S11300402DC000002BC0000029C0000027C0000004
S113005025C0000023C0000021C000001FC0000014
S11300601DC000001BC0000019C0000017C0000024
S113007015C0000013C0000011C000000FC0000034
S11300800DC000000BC0000009C0000011241FBEF9
S1130090CFEFD0E1DEBFCDBF0ED035C0B1CF87B337
S11300A0806287BB8EB582608EBD8EB588608EBD42
S11300B08FB58FBD0895F3DF8FEF84BB83B7826064
S11300C083BF83B7886483BF83B7806283BF84E6BA
S11300D081BF87B3806187BB85B38F7D85BB85B3C3
S11300E0806185BB81B7865F81BF81B78A3F08F095
S11300F011BE2FEF83EC99E0215080409040E1F74E
S10D010000C00000E9CFF894FFCF1F
S9030000FC
