S00E0000546573745F312E73726563E6
S113000045C000004BC0000049C0000047C00000CC
S113001045C0000043C0000041C000003FC00000D4
S11300203DC000003BC0000039C0000037C00000E4
S113003035C0000033C0000031C000002FC00000F4
S11300402DC000002BC0000029C0000027C0000004
S113005025C0000023C0000021C000001FC0000014
S11300601DC000001BC0000019C0000017C0000024
S113007015C0000013C0000011C000000FC0000034
S11300800DC000000BC0000009C0000011241FBEF9
S1130090CFEFD0E1DEBFCDBF20D03CC2B1CF9FB502
S11300A090689FBD853B08F084EB682F70E080E08A
S11300B090E041D120E030E044E353E4A6D020E0D6
S11300C030E04AEF53E4C3D120E030E04AEF52E499
S11300D038D003D17BBD6ABD089580E287BB8FB55C
S11300E082608FBD8EB588618EBD8FB580688FBDEF
S11300F08EB583608EBD10927A0087E893E197BD38
S113010086BDC0E0D0E009C08C2FC9DF8FE59AEE30
S11301100197F1F700C000002196C43BD105A4F378
S1130120C4EBD0E009C08C2FBADF8FE39CE90197C0
S1130130F1F700C0000021971C161D06A4F3E1CFBF
S11301405058BB27AA270ED048C139D130F03ED130
S113015020F031F49F3F11F41EF42EC10EF4E0950B
S1130160E7FB24C1E92F4AD180F3BA17620773076A
S11301708407950718F071F49EF562C10EF4E095BA
S11301800B2EBA2FA02D0B01B90190010C01CA014D
S1130190A0011124FF27591B99F0593F50F4503EF8
S11301A068F11A16F040A22F232F342F4427585FEA
S11301B0F3CF469537952795A795F0405395C9F702
S11301C07EF41F16BA0B620B730B840BBAF09150BA
S11301D0A1F0FF0FBB1F661F771F881FC2F70EC059
S11301E0BA0F621F731F841F48F48795779567952C
S11301F0B795F7959E3F08F0B3CF9395880F08F015
S11302009927EE0F9795879508950CD0E6C0DED018
S113021040F0D5D030F021F45F3F19F0C7C0511140
S113022010C1CAC0EBD098F39923C9F35523B1F395
S1130230951B550BBB27AA2762177307840738F051
S11302409F5F5F4F220F331F441FAA1FA9F333D0B0
S11302500E2E3AF0E0E830D091505040E695001C64
S1130260CAF729D0FE2F27D0660F771F881FBB1F20
S1130270261737074807AB07B0E809F0BB0B802DFA
S1130280BF01FF2793585F4F2AF09E3F510568F046
S11302908DC0D7C05F3FECF3983EDCF3869577952D
S11302A06795B795F7959F5FC9F7880F911D969548
S11302B0879597F90895E1E0660F771F881FBB1FA4
S11302C0621773078407BA0720F0621B730B840B51
S11302D0BA0BEE1F88F7E095089598D088F09F57E1
S11302E090F0B92F9927B751A0F0D1F0660F771F7E
S11302F0881F991F1AF0BA95C9F712C0B13081F05E
S11303009FD0B1E008959CC0672F782F8827B85FED
S113031039F0B93FCCF3869577956795B395D9F7BE
S11303203EF490958095709561957F4F8F4F9F4FC8
S11303300895E89409C097FB3EF4909580957095D4
S113034061957F4F8F4F9F4F9923A9F0F92F96E91D
S1130350BB279395F695879577956795B795F11192
S1130360F8CFFAF4BB0F11F460FF1BC06F5F7F4F2F
S11303708F4F9F4F16C0882311F096E911C0772341
S113038021F09EE8872F762F05C0662371F096E84A
S1130390862F70E060E02AF09A95660F771F881F19
S11303A0DAF7880F9695879597F9089597F99F67D7
S11303B080E870E060E008959FEF80EC08950024E9
S11303C00A941616170618060906089500240A94B6
S11303D012161306140605060895092E0394000C3C
S11303E011F4882352F0BB0F40F4BF2B11F460FFCB
S11303F004C06F5F7F4F8F4F9F4F089557FD9058F4
S1130400440F551F59F05F3F71F04795880F97FBD4
S1130410991F61F09F3F79F087950895121613068E
S11304201406551FF2CF4695F1DF08C016161706BD
S11304301806991FF1CF86957105610508940895F2
S1130440E894BB2766277727CB0197F908950BD04B
S1130450C4CFB5DF28F0BADF18F0952309F0A6CF92
S1130460ABCF1124EECFCADFA0F3959FD1F3950F44
S113047050E0551F629FF001729FBB27F00DB11D24
S1130480639FAA27F00DB11DAA1F649F6627B00DB4
S1130490A11D661F829F2227B00DA11D621F739F9D
S11304A0B00DA11D621F839FA00D611D221F749FAB
S11304B03327A00D611D231F849F600D211D822FF2
S11304C0762F6A2F11249F5750408AF0E1F0882339
S11304D04AF0EE0FFF1FBB1F661F771F881F915046
S11304E05040A9F79E3F510570F060CFAACF5F3FFF
S11304F0ECF3983EDCF3869577956795B795F79579
S1130500E7959F5FC1F7FE2B880F911D9695879500
S10B051097F90895F894FFCF58
S9030000FC
